:020000040800F2
:1000000000500020012C0008ED270008EF27000811
:10001000F1270008F3270008F5270008000000007A
:10002000000000000000000000000000F7270008AA
:10003000F927000800000000FB270008FD27000842
:10004000492C0008492C0008492C0008492C0008BC
:10005000492C0008492C0008492C0008492C0008AC
:10006000492C0008492C0008492C0008492C00089C
:10007000492C0008492C0008492C0008492C00088C
:10008000492C0008492C0008492C0008492C00087C
:100090000D280008492C0008492C0008492C0008AC
:1000A000492C0008492C0008492C0008492C00085C
:1000B000492C0008492C0008492C0008492C00084C
:1000C000492C0008492C0008492C0008492C00083C
:1000D000492C0008492C0008492C0008492C00082C
:1000E000492C0008492C0008492C00080000000099
:1000F0000000000000000000000000000000000000
:0C01000000000000000000005FF808F1A3
:10010C0010B5054C237833B9044B13B10448AFF345
:10011C0000800123237010BDC000002000000000EF
:10012C00942C000808B5034B1BB103490348AFF3EB
:10013C00008008BD00000000C4000020942C0008C2
:10014C0038B50E4B05461A784FF47A73B3FBF2F3BD
:10015C000B4A1068B0FBF3F000F09AF8044658B95B
:10016C000F2D09D8024629464FF0FF3000F054F805
:10017C002046044B1D6038BD0120FCE70000002028
:10018C006C00002004000020074A08B51368032007
:10019C0043F01003136000F02DF80020FFF7D0FFA0
:1001AC0002F0CEFA002008BD00200240034A044BA6
:1001BC0011681B780B441360704700BFDC000020F3
:1001CC0000000020014B1868704700BFDC000020C5
:1001DC0038B50446FFF7F6FF0546631C1EBF044BFB
:1001EC001B78E418FFF7EEFF431BA342FAD338BD8C
:1001FC000000002007490302CA6803F4E06322F4FC
:10020C00E0621204120C134343F0BF6343F4003357
:10021C00CB60704700ED00E0154B30B5DC68C4F3E3
:10022C000224C4F10703251D042B28BF0423062D2B
:10023C004FF0FF3594BF0024033C05FA03F321EA89
:10024C000303A54022EA0502A340002843EA020367
:10025C00ACBF00F16040074A4FEA0313DBB2B5BFF5
:10026C0000F00F0000F56140135480F8003330BDEE
:10027C0000ED00E014ED00E001234109034A00F019
:10028C001F00834042F82130704700BF00E100E0BE
:10029C000138B0F1807F0BD24FF0E023F021054AFA
:1002AC00586182F823100020072298611A61704768
:1002BC000120704700ED00E04FF0E0231A6904289C
:1002CC000CBF42F0040222F004021A61704770471E
:1002DC0008B5FFF7FCFF08BD114AD36813F01003F3
:1002EC0005D01049CB6943F00203CB611023D268CF
:1002FC00500706D50B4943F00403CA6942F00102CA
:10030C00CA61074AD169C90708D50648C16941F0D5
:10031C000401C161D16921F00101D161D360704741
:10032C0000200240E0000020064B186910F080000D
:10033C0007D0054A5A6002F188325A601869C0F336
:10034C00C01070470020024023016745034A00207B
:10035C00136943F080031361704700BF0020024013
:10036C0070B50546FFF72EFF0646114CE368D8071B
:10037C0012D4E368990644BF2023E360E368DA06ED
:10038C0006D4E369DB0703D4E06810F0040007D05F
:10039C00FFF7A2FF012003E06B1CE7D00DB903208F
:1003AC0070BDFFF70FFF801BA842DFD9F7E700BF36
:1003BC00002002402DE9F84FDFF894A01F469AF870
:1003CC0018300546012B884691463FD001234CF24C
:1003DC0050308AF81830FFF7C3FF90BB012D03D0C3
:1003EC00022D0CBF0225042500263346DFF864B02D
:1003FC003401C4F12001A4F1200207FA01F129FA19
:10040C0004F4CAF81C300C4327FA02F21443DBF84C
:10041C001020A4B242F00102CBF810204CF2503064
:10042C0028F81640FFF79CFFDBF8102022F00102A1
:10043C00CBF8102028B90136F2B295424FF00003E8
:10044C00D6D800238AF81830BDE8F88F0220FBE7D5
:10045C00E0000020002002400022064BDA61064B2F
:10046C001A6942F002021A6158611A6942F040029C
:10047C001A617047E0000020002002402DE9F04195
:10048C00264F05463B7E8846012B44D001243C7602
:10049C0003684CF25030022B1AD1FFF761FF20B1E8
:1004AC00012000233B76BDE8F0811D4CF8612369E7
:1004BC004CF2503043F004032361236943F04003B2
:1004CC002361FFF74DFF236923F004032361E8E761
:1004DC00FFF746FF0028E3D14FF0FF33C8F8003098
:1004EC002046AE680E4CD5E9023203EB8223B342B0
:1004FC00D7D93046FFF7B0FF4CF25030FFF730FF42
:10050C00236923F00203236110B1C8F80060C8E727
:10051C0006F58066E7E70220C5E700BFE000002093
:10052C00002002402DE9F74F00221646644F654B20
:10053C00DFF894C1DFF894E14FF001080D6808FA78
:10054C0006F808EA050438EA05057AD14D68032D4A
:10055C0007D8013D022D00F28D80DFE805F09BA04D
:10056C00A600122D00F09E8072D8112D00F0948000
:10057C00FF2C98BF82464FF00F0988BF00F1040A88
:10058C004FEA8605DAF8008088BF203D09FA05FBA2
:10059C0028EA0B0802FA05F548EA0505CAF80050E6
:1005AC00D1F804A01AF0805F4BD0BD6926F0030887
:1005BC0045F00105BD61BD6908F1804805F00105F4
:1005CC00019508F5803806F0030B019D4FEA8B0B63
:1005DC00D8F8085009FA0BF925EA09093C4DA8424C
:1005EC0067D005F58065A84265D005F58065A84201
:1005FC0063D005F58065A8420CBF0325042505FAD8
:10060C000BF545EA0905C8F808501D681AF4803F37
:10061C0014BF2543A5431D605D681AF4003F14BF49
:10062C002543A5435D609D681AF4801F14BF2543C4
:10063C00A5439D60DD681AF4001F14BF2543A54334
:10064C00DD600136102E7FF477AF03B0BDE8F08F7C
:10065C00DFF880904D450DD018D8A9F580194D457F
:10066C0008D009F570294D4504D0A9F580194D45E0
:10067C007FF47EAF8A68D2B1012A08BFC0F810801F
:10068C004FF0080218BFC0F8148071E76545F1D02F
:10069C007545EDE7CA686BE7CA68043268E7CA6853
:1006AC00083265E7CA680C3262E7002260E7042270
:1006BC005EE70025A3E70125A1E702259FE700BF20
:1006CC000010024000040140000031100000321004
:1006DC0000080140000022108368194214BF012059
:1006EC00002070472DE9F041044686B000285ED00A
:1006FC0090F8293403F0FF021BB980F8282402F08B
:10070C00C7F8032325466E4684F8293455F8100B98
:10071C0000F0BAFE0FCD0FC62B6804F1040833604D
:10072C0098E80E00206800F09FFE0021206800F081
:10073C00B5FE0021234622460126084604F1100589
:10074C0082F82810918601310F29C2E90E0082F837
:10075C00296082F82B00106402F12002F0D10022F3
:10076C00174683F828229A8601320F2AC3E98E771E
:10077C0083F8297283F82B72C3F8407203F12003BB
:10078C00EFD16E460FCD0FC62B68336098E80E0084
:10079C00206800F085FE012384F82470206884F81A
:1007AC00293401F076F8002006B0BDE8F081012074
:1007BC00FAE710B590F828340446012B0ED001212D
:1007CC0080F8281402F077F9206801F060F82068AE
:1007DC0000F051FE002084F8280410BD0220FCE734
:1007EC0010B590F828340446012B0FD0012380F863
:1007FC002834006800F048FE206801F037F82068C3
:10080C0001F047F8002084F8280410BD0220FCE712
:10081C0010B590F828240446012A0BD0012280F848
:10082C00241080F82824006801F02BF8002084F8AC
:10083C00280410BD0220FCE738B5044648B2002855
:10084C0001F07F05B5BF04EB451104EB41112831D4
:10085C0001F50A71C00F0D7048700A61CB7094F8E5
:10086C002834012B09D00123206884F8283400F0A7
:10087C0033FE002084F8280438BD0220FCE738B58C
:10088C00002501F07F0100EB411484F82812C4E923
:10089C008F23C4F8445284F8295204F50A71006875
:1008AC0001F00EF8284638BD01F07F0138B500EB99
:1008BC0041140025C4E90F2384F828100123214694
:1008CC00656484F829302831006800F0F9FF284667
:1008DC0038BD00002DE9F3470446006800F0DBFF4B
:1008EC00000400F19880206800F0D5FF41050FD579
:1008FC0022682046B2F8443023F480631B041B0C9E
:10090C00A2F8443001F0FDFF00212046FFF780FFE4
:10091C00206800F0C0FF470408D52268B2F84430C4
:10092C0023F480431B041B0CA2F84430206800F015
:10093C00B2FF860408D52268B2F8443023F4005381
:10094C001B041B0CA2F84430206800F0A4FFC50463
:10095C001CD522682046B2F8403023F004031B0457
:10096C001B0CA2F84030B2F8403023F008031B04F3
:10097C001B0CA2F8403001F0E1FF2268B2F84430C1
:10098C0023F480531B041B0CA2F84430206800F0A5
:10099C0082FF00051DD52068B0F840309BB243F0B3
:1009AC000803A0F84030B0F8443023F400631B0473
:1009BC001B0CA0F84430B0F840309BB243F0040359
:1009CC00A0F8403000F067FFC10402D4204601F0CB
:1009DC00A5FF206800F05FFF82050BD5226820463A
:1009EC00B2F8443023F400731B041B0CA2F84430FF
:1009FC0001F083FF206800F04EFFC30508D5226884
:100A0C00B2F8443023F480731B041B0CA2F844305E
:100A1C0002B0BDE8F0870023CB4ECC4FDFF830831B
:100A2C00ADF80430ADF806302068B0F844309BB215
:100A3C00ADF804301B047FF556AFBDF8045015F02B
:100A4C000F0540F0AA80BDF80410038811F01001C6
:100A5C009BB226D133400380B0F8503094F8282054
:100A6C009BB203EBC20300EB4303D3F80434E26BF9
:100A7C00C3F309031A4463642046E26301F036FFB2
:100A8C0094F82430002BCFD0226C2168002ACBD1D3
:100A9C0094F8243043F08003A1F84C3084F82420DF
:100AAC00C2E7ADF80630BDF806301A051FD5B0F810
:100ABC00503094F828229BB203EBC20300EB4303A3
:100ACC00D3F80C34B4F82C22C3F30903C4F8443221
:100ADC0004F22C4100F0D6FF22682046138823F044
:100AEC0070031B051B0D138001F0F2FE9CE7BDF893
:100AFC0006301B0498D5038823F070031B051B0DCF
:100B0C000380B0F8503094F828229BB203EBC20358
:100B1C0000EB4303D3F80C34C3F30903C4F8443299
:100B2C0063B1B4F82C22D4F83C1200F0ABFFD4F82B
:100B3C003C32D4F844221344C4F83C320021204601
:100B4C0001F0CCFE2268D4F83852B2F850103E2D89
:100B5C0089B201F1060102F5806016D9C5F34F1375
:100B6C00ED0604BF03F1FF339BB248EA83239BB22B
:100B7C0040F8113013889BB23B4083F4405343F44C
:100B8C00004343F0800313804EE7C5F34F03ED079A
:100B9C0044BF01339BB29B02E9E730F825309BB28E
:100BAC00ADF80630BDF80630190441D530F82530C3
:100BBC0004EB451123F070031B051B0D20F82530A9
:100BCC0091F8323200F580624FEA451A002B7AD147
:100BDC00B0F8503091F828C29BB2063303EBCC032B
:100BEC0052F81330C3F30909B9F1000F06D0B1F86C
:100BFC002C224B46D1F83C1200F044FF04EB0A01C6
:100C0C00D1F84432D1F83C224B44C1F84432D1F8EB
:100C1C0040324A44C1F83C2223B1D1F83802814514
:100C2C0080F08B80A24420469AF8281201F056FEE0
:100C3C00BDF8063020681A067FF5F6AE30F8253080
:100C4C0004EB45119BB2334020F8253091F832303B
:100C5C004FEA451900F580620235002B7AD1B0F8C5
:100C6C00503091F828C09BB2023303EBCC0352F8FE
:100C7C00133004EB4515C3F309036B601BB18A8D6C
:100C8C00C96B00F00EFE2268A144B2F8503099F8FE
:100C9C0028109BB2023303EBC10302EB4302D2F8E0
:100CAC000034D9F83C20C3F309031A44C9F8443082
:100CBC00D9F840302046C9F83C20002B40F0828007
:100CCC0001F014FEB0E691F828C230F82C304FEA4F
:100CDC00CC0C13F4804FB0F850309BB2634420D04E
:100CEC00023352F81330C3F30909B9F1000F06D0DF
:100CFC004B46B1F82E22D1F83C1200F0C3FE04EBA7
:100D0C000A0393F82812226832F8213023F0F003FA
:100D1C001B051B0D43F4004343F0C00322F82130A4
:100D2C006CE7063352F81330C3F30909B9F1000F1D
:100D3C00E5D04B46B1F83022DDE7204691F8281279
:100D4C00FFF79DFD74E700BF0F8FFFFF8FBFFFFF05
:100D5C000080FFFF91F828C030F82C304FEACC0C03
:100D6C0013F0400FB0F850309BB263441ED00233E6
:100D7C0052F8133004EB4515C3F309036B601BB138
:100D8C00CA8DC96B00F08DFD04EB090393F8281094
:100D9C00226832F8213023F0F0031B051B0D43F4BD
:100DAC00404343F0800322F821306CE7063352F8BD
:100DBC00133004EB4515C3F309036B60002BE3D030
:100DCC000A8EDEE7FFF770FD2EE600BF012238B574
:100DDC004BB2002B01F07F05B5BF00EB451100EBCA
:100DEC004111283101F50A71DB0F8A700D704B70BF
:100DFC0090F82834044693420ED080F828240068DA
:100E0C0000F0C2FC25B9206804F22C4100F047FD2B
:100E1C00002084F8280438BD0220FCE738B50025F2
:100E2C004BB2002B01F07F02B5BF00EB421100EB7F
:100E3C004111283101F50A71DB0F8D700A704B706E
:100E4C0090F828340446012B09D0012380F828346B
:100E5C00006800F0CBFC284684F8285438BD0220EA
:100E6C00FCE711F0800F1BBF01F07F0100EB41107C
:100E7C0000EB4110283008BF00F50A7099B21AB97E
:100E8C00827281800020704701221B0C8272C1800B
:100E9C000381F7E703682DE9F341DB07054610D41E
:100EAC002B689F075ED42B68190700F195802B687F
:100EBC005A0700F1C180EA69002A40F02D81002018
:100ECC0014E0914C636803F00C03042B07D06368A7
:100EDC0003F00C03082B0CD16368DE0309D52368DF
:100EEC009C03DDD56B68002BDAD1012002B0BDE884
:100EFC00F0816B68B3F5803F10D1236843F48033E5
:100F0C002360FFF75FF9064623689803C8D4FFF700
:100F1C0059F9801B6428F7D90320E7E79BB92368AC
:100F2C0023F480332360236823F480232360FFF7AA
:100F3C0049F9064623689903B2D5FFF743F9801B9C
:100F4C006428F7D9E8E7B3F5A02F236803D143F45D
:100F5C0080232360D1E723F480332360236823F4B8
:100F6C008023CDE7684C636813F00C0F07D06368DF
:100F7C0003F00C03082B10D16368DA030DD423683B
:100F8C009B0702D52B69012BAFD123686A6923F02B
:100F9C00F80343EAC203236085E72A695B4B6AB115
:100FAC0001221A60FFF70EF9064623689F07ECD45E
:100FBC00FFF708F9801B0228F7D9ADE71A60FFF795
:100FCC0001F90646236898077FF56DAFFFF7FAF82D
:100FDC00801B0228F6D99FE7AA694B4E4B4BE2B116
:100FEC000122C3F88024FFF7EDF80446736A9B07CF
:100FFC000DD54FF4FA52464B1B68B3FBF2F3019339
:10100C0000BF019B5A1E0192002BF9D14FE7FFF74D
:10101C00D9F8001B0228E9D97EE7C3F88024FFF732
:10102C00D1F80446736A9F077FF541AFFFF7CAF802
:10103C00001B0228F6D96FE7334CE369D80024D49F
:10104C000127E36943F08053E361E36903F08053C4
:10105C000093009B2F4E3368D90518D5EB68012BF4
:10106C0026D1236A43F001032362FFF7ABF841F268
:10107C0088380646236A9B073FD5002F3FF41BAFE9
:10108C00E36923F08053E36115E70027E2E7336857
:10109C0043F480733360FFF795F880463368DA05C4
:1010AC00DCD4FFF78FF8A0EB08006428F6D933E7FF
:1010BC00ABB9236A41F2883823F001032362236A17
:1010CC0023F004032362FFF77DF80646236A980792
:1010DC00D3D5FFF777F8801B4045F7D91CE7052BD4
:1010EC00236A03D143F004032362BAE723F001031C
:1010FC002362236A23F00403B6E7FFF763F8801B2F
:10110C004045B7D908E700BF00100240000042423A
:10111C006C00002000700040234C636803F00C034B
:10112C00082B3FF4E2AE022A4FF000021F4B1A6666
:10113C002CD1FFF747F806462368990120D42B6A77
:10114C00B3F5803F05D16268A96822F400320A43E6
:10115C006260696A62680B4322F4741213430122C1
:10116C006360124B1A66FFF72DF8054623689A0147
:10117C003FF5A5AEFFF726F8401B0228F6D9CBE6C3
:10118C00FFF720F8801B0228D6D9C5E6FFF71AF81E
:10119C00054623689B017FF592AEFFF713F8401BC1
:1011AC000228F6D9B8E600BF001002400000424207
:1011BC0030B5184B87B002AC03F110052246186805
:1011CC005968083303C2AB421446F7D140F20123ED
:1011DC001149ADF804304B6803F00C02082A17D102
:1011EC00C3F3834218326A44DB0312F8100C0CD59B
:1011FC004B680A4AC3F34043504318336B4413F80B
:10120C00143CB0FBF3F007B030BD054B5843FAE784
:10121C000248F8E7AC2C00080010024000127A00DB
:10122C0000093D004C4A2DE9F0411368044603F0D7
:10123C0007038B420D4627D32268910731D4D2077E
:10124C0037D4454A136803F00703AB4271D82268C0
:10125C00424D12F0040F77D1130706D56B68226943
:10126C0023F4605343EAC2036B60FFF7A1FF6B6882
:10127C003B4AC3F30313D35CD8403A4B18600020AD
:10128C00FEF75EFF00200AE0136823F007030B4310
:10129C001360136803F007038B42CDD00120BDE827
:1012AC00F0812E49A0684B6823F0F00303434B6098
:1012BC00C5E76268294E012A33681BD113F4003F3D
:1012CC00ECD0736841F2883823F003031343736046
:1012DC00FEF778FF63680746012B13D1736803F0A0
:1012EC000C03042BADD0FEF76DFFC01B4045F5D9A8
:1012FC000320D4E7022A02D113F0007FE0E713F0B9
:10130C00020FDDE7022B0FD1736803F00C03082BDF
:10131C0097D0FEF757FFC01B4045F5D9E8E7FEF71D
:10132C0051FFC01B4045E3D8736813F00C0FF6D186
:10133C0087E7136823F007032B431360136803F04C
:10134C000703AB42AAD182E76B68E16823F4E06340
:10135C000B436B6080E700BF00200240001002408E
:10136C00BD2C00086C000020014B1868704700BFB2
:10137C006C00002003682DE9F341D907054621D5FF
:10138C00364CE369DA0033D40126E36943F0805329
:10139C00E361E36903F080530193019B304F3B6899
:1013AC00DB0527D5236A6A6813F4407336D1236AA8
:1013BC006A6823F44073134323621EB1E36923F07C
:1013CC008053E3612868830706D52449AB684A68D3
:1013DC0022F440421A434A6010F010001BD01F4AFE
:1013EC00E9685368002023F480030B43536012E038
:1013FC000026D3E73B6843F480733B60FEF7E2FEC4
:10140C0080463B68D805CDD4FEF7DCFEA0EB080087
:10141C006428F6D9032002B0BDE8F08102F44072D2
:10142C009A42C4D001200F4A236AC2F8400400201B
:10143C0023F44071C2F840042162D907B7D5FEF7F6
:10144C00C1FE41F288380746236A9A07AFD4FEF7EB
:10145C00B9FEC01B4045F7D9DCE700BF00100240C5
:10146C00007000400000424284B001A880E80E00E9
:10147C0004B000207047B0F840309BB243F43F43B7
:10148C00A0F8403000207047B0F8403023F474537B
:10149C005B045B0CA0F840300020704700207047C4
:1014AC0084B010B5044603A880E80E000020012388
:1014BC00A4F84030A4F84000A4F84400A4F850006C
:1014CC00B4F840309BB243F43F43A4F84030BDE83D
:1014DC00104004B070470000F0B5CB780A78032BAD
:1014EC000FD8DFE803F002614D5630F8223023F4B8
:1014FC00EC4323F070031B041B0C43F4007320F823
:10150C00223040F60F720B7800F5806530F82340DE
:10151C0014401C4344F4004444F0800420F823405D
:10152C008E7ADC00002E40F08A808E884F78760808
:10153C007600002F43D0B0F8501089B2214445F802
:10154C00116030F82310490608D530F823100A40F2
:10155C0042F4004242F0C00220F8232030F823204D
:10156C0022F4E04222F040021204120C82F020021B
:10157C0042F4004242F0800220F823200020F0BD0B
:10158C0030F8223023F4EC4323F070031B041B0CC3
:10159C00B5E730F8223023F4EC4323F070031B043E
:1015AC001B0C43F4C063AAE730F8223023F4EC435D
:1015BC0023F070031B041B0C43F480639FE7B0F80B
:1015CC00502092B22244043245F81260B0F85020F8
:1015DC00096992B206323E29144428D9C1F34F1638
:1015EC00CA0608BF06F1FF36664A08BFB6B242EA21
:1015FC00862292B245F8142030F8232056040BD5DD
:10160C0030F8232022F0F0021205120D42F4404271
:10161C0042F0800220F8232030F8232022F480426C
:10162C0022F070021204120C82F44052A0E7C1F3B3
:10163C004F02CF0744BF013292B29202D9E730F881
:10164C00236026F4F8763605360D46F4014646F04E
:10165C00800620F82360B0F85060CF88B6B27F08BF
:10166C0026447F0045F81670B0F85060B6B234448A
:10167C000E8904347608760045F814604978002900
:10168C0043D130F823104D0408D530F823100A400C
:10169C0042F4404242F0800220F8232030F823200C
:1016AC0054060BD530F8232022F0F0021205120D4F
:1016BC0042F4004242F0C00220F8232048F280019C
:1016CC0030F8232022F0F0021205120D42F40042F1
:1016DC0042F0C00220F8232030F8232022F480426C
:1016EC0022F070021204120C82F440520A4320F8C9
:1016FC00232030F8232022F4E04222F0400212048E
:10170C00120C114320F8231038E730F82310490449
:10171C0008D530F823100A4042F4404242F08002CF
:10172C0020F8232030F8232052060BD530F8232044
:10173C0022F0F0021205120D42F4004242F0C002F7
:10174C0020F8232048F2800130F8232022F0F00208
:10175C001205120D42F4404242F0800220F8232080
:10176C0030F8232022F4E04222F040021204120C42
:10177C000A4320F8232030F8232022F4804222F060
:10178C007002BCE70080FFFF0A788AB9038823F453
:10179C00804323F040031B041B0C83F4805383F021
:1017AC00100343F4004343F0800303800020704790
:1017BC004B7883B130F8223023F4E04323F040031C
:1017CC001B041B0C83F0100343F4004343F0800311
:1017DC0020F82230EAE730F8223023F4804323F05B
:1017EC0070031B041B0C83F48053EDE74B780A78D1
:1017FC000BB330F8223059060BD530F8223023F0D9
:10180C00F0031B051B0D43F4004343F0C00320F809
:10181C00223030F8223023F4E04323F040031B0441
:10182C001B0C83F0300343F4004343F0800320F897
:10183C0022300020704730F822305B040BD530F892
:10184C00223023F0F0031B051B0D43F4404343F0FF
:10185C00800320F8223030F8223023F4804323F028
:10186C0070031B041B0C83F44053DCE7012203467A
:10187C00A0F8402000200322A3F84400A3F8402045
:10188C00704711B98023A0F84C300020704700201D
:10189C00704700207047B0F8440080B270470020B9
:1018AC007047013300F580605B1000EB420203B916
:1018BC00704731F8020B013B22F8040BF7E70000EC
:1018CC00F8B54A780546012A0E468C690B69887A68
:1018DC005BD19C428ABFE21A00221C468A61A3B2E9
:1018EC00496905F58067F8B9B2882846FFF7D9FF32
:1018FC00B5F8503032789BB2023303EBC20347F891
:10190C001340327835F8223023F4E04323F04003BF
:10191C001B041B0C83F0300343F4004343F080039F
:10192C00002025F82230F8BD307835F82020C00092
:10193C0012F0400FB5F8502092B2024402F10202AC
:10194C0047F81240284614BF3289F288FFF7A9FFE6
:10195C007378327863B935F8223023F0F0031B0525
:10196C001B0D43F4004343F0C00325F82230C8E7B5
:10197C00012BC6D135F8223023F0F0031B051B0DCB
:10198C0043F4404343F08003EFE79C4294BF0021B3
:10199C00E11AB16188BF1C46337860BBB5F85020A2
:1019AC003E2C92B202F1060202EBC30205F58060F6
:1019BC0019D9C4F34F11E40608BF01F1FF31304BC4
:1019CC0008BF89B243EA81239BB240F812303278C7
:1019DC0035F8223023F4804323F070031B041B0CD6
:1019EC0083F4405398E7C4F34F03E10744BF01333A
:1019FC009BB29B02E8E7002AE9D1B5F850103E2CC7
:101A0C0089B201F102014FEAC30005F5806201EBD6
:101A1C00C3011DD9C4F34F17E30608BF07F1FF3705
:101A2C00174B08BFBFB243EA87239BB242F8113071
:101A3C00B5F850103E2C89B201F1060101440FD8C3
:101A4C00C4F34F03E00744BF01339BB29B0212E087
:101A5C00C4F34F03E70744BF01339BB29B02E4E797
:101A6C00C4F34F10E40608BF00F1FF30044B08BF6D
:101A7C0080B243EA80239BB242F81130A7E700BF43
:101A8C000080FFFF013300F580605B1000EB42002B
:101A9C0003B9704750F8042B013B21F8022BF7E7F0
:101AAC001B2303800048704744000020002070472F
:101ABC00002070470A230380004870476000002014
:101ACC0037B5D0F81842054694F80034042B65D18C
:101ADC00D4F80814002952D12378A3B9D4F80C34C3
:101AEC00012B3DD10322002384F800244FF44072D3
:101AFC00C4F80C34C4F80834A4F80234A4F8042450
:101B0C00184603B030BD212B10D1D4F80C34052B62
:101B1C0026D1E378A2781B0403EB022362781344EA
:101B2C00227903EB0263C4F81034DBE7412B17D1A5
:101B3C00D4F80C34052B13D1E078A378000400EB17
:101B4C00032063781844237900EB0360D5F81C322A
:101B5C00C4F81004DB6898470028C3D00223CFE7F1
:101B6C000023C4F80C34C4F808348DF80030012379
:101B7C0069462846ADF8063000F0EBFCB2E70129C7
:101B8C00B0D0D4F81004D5F81C32023900EB812106
:101B9C001B692046D4F80C249847DDE7072B4FF03F
:101BAC000003ADD1154A84F80734127D12F00402FB
:101BBC0007D00622A4F8023484F800244FF4C06243
:101BCC009CE7082384F800344FF40063A4F8022443
:101BDC00A4F8043400F01AFAD5F81C329B68984724
:101BEC00BFF34F8F0649074BCA6802F4E0621343F8
:101BFC00CB60BFF34F8F00BFFDE700BF4400002058
:101C0C0000ED00E00400FA05022238B50025044678
:101C1C00D0F81832A3F8002483F80524C3F808542C
:101C2C00C3F80C54D0F81C329B689847D4F81802AF
:101C3C0000F040FF2846C4F8185238BD10B50446D1
:101C4C004FF4836000F032FF0346C4F81802022000
:101C5C00BBB100224FF40071C3F81424C3F808245C
:101C6C00C3F80C24074AC3F80004C3F80414C3F8DF
:101C7C001024D4F81C325B689847003818BF012038
:101C8C00400010BD0000010800207047062908B56F
:101C9C0007D8D0F81C320449186800F065FC0248DB
:101CAC0008BD0020FCE700BF000100202DE9F04139
:101CBC000D78064615F060058C46D0F8184200F0F9
:101CCC005681202D25D191F80180B8F1060F00F234
:101CDC004881DFE818F01D01070039009C00E9007D
:101CEC00FF000301CA8894F80034CAB1022B01D05A
:101CFC00052B10D1BCF802302146C4F8083403235C
:101D0C003046C4F80C2484F8003484F8053400F010
:101D1C005CFC002515E06146304600F01AFCF8E743
:101D2C00052B01D0022BF6D1012384F807340623AE
:101D3C00002584F800344FF4C063A4F80254A4F8CE
:101D4C0004342846BDE8F081CA88002A55D094F89E
:101D5C000034022B01D0092B49D1BCF80270C4F815
:101D6C000C24C4F80874B7B94FF40453032A98BF71
:101D7C004FF00908238041230322214684F8008474
:101D8C00A4F8027484F8047484F80584A3703046B3
:101D9C0000F006FCBDE7012F4FF0000519D0092318
:101DAC0084F800344FF41063A4F80254A4F80434FB
:101DBC00D4F81004D6F81C32023F21465B6900EBC4
:101DCC00872098470146B4F80C24304600F0E8FB15
:101DDC00B7E70F2384F800344FF47063A4F802546F
:101DEC00A4F804346146304600F0B3FBA9E70025A3
:101DFC00C4F80C54C4F80854F4E7022384F80034F3
:101E0C004FF40073A4F80224A4F8043481E794F886
:101E1C00003404F20145032B04D0062B2AD00622F1
:101E2C002946B4E7D4F80C34D3B1042384F8003435
:101E3C000023A4F802344FF48063A4F80434D0F8DF
:101E4C001C32D4F808149B69D4F8100429B92278F0
:101E5C00412A02D12A469847E1E72A460121FAE7AE
:101E6C000522A4F802344FF4A06384F80024A4F8EB
:101E7C000434D4E794F80734012B07D10722A4F8D3
:101E8C00023484F800244FF4E063F0E7002BC6D151
:101E9C00464A127D5207C2D50222A4F8023484F8B5
:101EAC0000244FF40073E2E794F8003400250A2B69
:101EBC000BBF022340F60A63C4F80034C4F80034A4
:101ECC000CBF4FF400734FF4206384F80654A4F84D
:101EDC00043436E7012204F5806158E794F80034A5
:101EEC00092B3FF616AF6FF41B751D4115F001055C
:101EFC007FF40FAF0223C4F800344FF4007384F85E
:101F0C000654A4F80434C4F80854C4F80C5418E764
:101F1C0094F80024092A12D86FF41B73134113F0A0
:101F2C0001030CD10222C4F800244FF4007284F88F
:101F3C000634A4F80424C4F80834C4F80C341B4B3D
:101F4C005D7D15F0100507D0304600F05FF8304687
:101F5C0000F057F84546F4E6BCF80200FEF738F9F5
:101F6C00EFE66146304600F0F4FA0225E9E64B78DC
:101F7C000A2B10D00B2B12D0062BF2D14B881B0A3C
:101F8C00212B05D1CA880A49092A28BF09221CE736
:101F9C002A46294619E7012204F2144116E78D78E6
:101FAC00002DE0D1C4F81454CBE600BF440000204F
:101FBC00560000200020704700207047002070471A
:101FCC0009B1C0F81C120020704708B580B1D0F8D8
:101FDC00143213B10023C0F8143209B1C0F8101236
:101FEC000123027080F8FC3100F0ACFC002008BD2D
:101FFC000220FCE719B1C0F814120020704702202F
:10200C00704708B500F0D0FC002008BD10B50446A0
:10201C00D0F8143201795B689847204600F0D2FC66
:10202C00002010BD08B5D0F8143233B11B689847A6
:10203C00003818BF0120400008BD0220FCE708B59D
:10204C00D0F814325B689847002008BD38B500F50D
:10205C0002750446284600F068FA012394F8081229
:10206C00C4F8F431B4F80E32C4F8F83101F01F039F
:10207C00012B08D0022B0BD07BB92946204600F04F
:10208C00D9F8002038BD2946204600F0D3F9F8E7EE
:10209C002946204600F0E6F9F3E7204601F08001DE
:1020AC0000F0AEFCEDE770B50446164601BBD0F867
:1020BC00F431032B0DD1D0E943539D420BD9ED1ACA
:1020CC00AB4228BF2B463146C0F80C519AB200F0F7
:1020DC0089FA002070BDD0F814321B6923B190F836
:1020EC00FC21032A00D19847204600F083FAF0E740
:1020FC00D0F814329B69002BEBD090F8FC21032A0A
:10210C00E7D19847E5E7F8B5044613460F46002992
:10211C003DD1D0F8F421022A0FD1D0E90756B542AF
:10212C0014D9AD1B1946C561AAB200F046FA3B465C
:10213C001A461946204600F0ABFC94F80032012BED
:10214C0002D1002384F800320020F8BD8369B3FB70
:10215C00F6F506FB153565B99E420AD8D0F8F8217C
:10216C00934206D22A4600F028FA2B46C4F8F851BE
:10217C00DEE7D4F81432DB682BB194F8FC21032A87
:10218C0001D120469847204600F03FFAD5E7D0F819
:10219C0014325B69002BD7D090F8FC21032AD3D1E1
:1021AC009847D1E7002238B5044640251146402314
:1021BC0000F016FC2B46002280212046C4F810515A
:1021CC0000F00EFC012384F8FC31D4F8183225629F
:1021DC002BB1D4F8143220465B6821799847002043
:1021EC0038BD01740020704790F8FC3180F8FD3147
:1021FC00042380F8FC310020704790F8FD3180F802
:10220C00FC310020704708B590F8FC21032A04D15A
:10221C00D0F81432DB6903B19847002008BD10B523
:10222C000446802100F0ECFB2046BDE81040002164
:10223C0000F0E6BB37B54B7804460D46092B7ED82B
:10224C00DFE813F0D000EC007D00E0007D007400AE
:10225C000A007D00C000940049880B0A013B062B44
:10226C006DD8DFE803F0041C296C6C505900D0F8D1
:10227C0010321B68207C0DF106019847BDF8062032
:10228C00002A6ED0EB88002B6BD09A4228BF1A46DE
:10229C000146ADF80620204600F082F961E0027C90
:1022AC00D0F8143232B99B6A0DF10600984702231C
:1022BC004370E3E7DB6AF7E7C9B205291CD8DFE80E
:1022CC0001F003070B0F1317D0F810325B68D1E73E
:1022DC00D0F810329B68CDE7D0F81032DB68C9E734
:1022EC00D0F810321B69C5E7D0F810325B69C1E732
:1022FC00D0F810329B69BDE7D0F814320DF106020C
:10230C009B6B9847BAE7037CCBB9D0F814320DF12C
:10231C0006005B6B9847B1E7037C83B9D0F81432A5
:10232C000DF106001B6B98470723C1E78B8833B967
:10233C00CB8823B990F8FC314D88032B03D1204670
:10234C00FFF76DFF0DE005F07F05294680F8FE5183
:10235C0000F082FB204600F04DF92DB1022384F8E9
:10236C00FC31002003B030BD0123F8E78978304DF3
:10237C0001292970E3D890F8FC31022B0CD0032BE7
:10238C00DDD1B1B90223416080F8FC31FFF757FE73
:10239C00204600F02FF9E4E70029F9D001210323AE
:1023AC00416080F8FC312046FFF73CFE0228EFD15B
:1023BC00C5E741680129EBD0C9B2FFF740FE297887
:1023CC006160F0E7CA88012AB9D190F8FC31022B80
:1023DC0003D0032BB3D1011D5DE70146002341F867
:1023EC00083F58E790F8FC31023B012BA7D8D0F8F6
:1023FC0004320146002B14BF03230123022241F8AF
:10240C000C3F48E74B88012BABD1C4F80432D4F80D
:10241C001432294620469B689847B9E790F8FC315E
:10242C00023B012B8BD84B88012B9AD10023ECE774
:10243C00FF01002038B590F8FC310446032B0D4603
:10244C000DD10B79012B0AD8D0F814329B68984720
:10245C00EB8813B9204600F0CDF8002038BDFFF70B
:10246C00DEFEFAE770B50A78044602F06002202A14
:10247C000D468E880B7905D1D0F814329B6898479D
:10248C00002070BD4A78012A3AD0032A1DD0002AB8
:10249C00F6D190F8FC21022A41D0032A1BD103F07B
:1024AC007F0500EB0515320619464CBF143505F5B2
:1024BC00827500F0C1FA003818BF01200222286092
:1024CC002946204600F06CF8DAE790F8FC21022A45
:1024DC0025D0032A03D02046FFF7A1FED0E74A8877
:1024EC0022B95A0602D0194600F08AFAD4F81432EE
:1024FC00294620469B689847204600F07BF8BFE7AA
:10250C0090F8FC21022A0AD0032AE4D14A88002A36
:10251C00B6D15E06F0D0194600F080FAE6E759060F
:10252C00AED0194600F06CFAAAE70B7803704B7822
:10253C004370CA788B7803EB022343804A790B797A
:10254C0003EB02238380CA798B7903EB0223C380CC
:10255C00704710B50446802100F052FA2046BDE8C1
:10256C001040002100F04CBA30B588B1002401387D
:10257C0023460134055D002DFAD1DBB201335B003B
:10258C0013800B7003234B70022310F8014F04B916
:10259C0030BD5A1CCC54D2B20233DBB28D54F4E7AA
:1025AC001346022210B5C0E90633C0F8F4210A46DE
:1025BC00002100F05FFA002010BD08B513460A4652
:1025CC00002100F057FA002008BD1346032210B575
:1025DC00C0E94233C0F8F4210A46002100F058FA51
:1025EC00002010BD08B513460A46002100F050FA31
:1025FC00002008BD08B50423C0F8F43100231A46A6
:10260C00194600F037FA002008BD08B50523C0F8BC
:10261C00F43100231A46194600F03AFA002008BD9E
:10262C0030B54FF480330124022595B00022CDE95A
:10263C000A43CDE911534FF480130AA80C920E945F
:10264C001393FEF727FC00B1FEE70F23CDE9053508
:10265C004FF480630790CDE90830214605A8FEF7BA
:10266C00E1FD00B1FEE7102301934FF4800301A8B4
:10267C000493FEF77FFE044600B1FEE7FEF774FEFE
:10268C004FF47A73B0FBF3F0FDF702FE0420FDF774
:10269C0013FE224621464FF0FF30FDF7BDFD15B06D
:1026AC0030BD000090B589B000AFFDF76DFDFFF7B0
:1026BC00B7FF1E4B4FF480449A691D4842F010023C
:1026CC009A619A6907F1100102F010027A607A6837
:1026DC009A6942F020029A619A6902F02002BA606B
:1026EC00BA689A6942F004029A619B6903F0040388
:1026FC00FB60FB680023C7E90443BB61FDF712FFD5
:10270C0021460B48FDF7E8FF60B10A4B0A4A1968ED
:10271C0001390A40B2F1005F04D15A681B6883F397
:10272C000888904700F098F8FEE700BF00100240C0
:10273C00001001400000010800B0FF2FFEE7000070
:10274C00254B07B59A69032042F001029A619A69F8
:10275C0002F001020092009ADA6942F08052DA61CA
:10276C00DB6903F080530193019BFDF743FD0022CD
:10277C006FF00B001146FDF74FFD00226FF00A00C1
:10278C001146FDF749FD00226FF009001146FDF7D7
:10279C0043FD00226FF004001146FDF73DFD0022C1
:1027AC006FF003001146FDF737FD00226FF00100BA
:1027BC001146FDF731FD00224FF0FF301146FDF7B9
:1027CC002BFD064A536823F0E06343F0007353601B
:1027DC0003B05DF804FB00BF001002400000014094
:1027EC007047FEE7FEE7FEE7FEE77047704770476D
:1027FC0008B5FDF7DBFCBDE80840FDF769BD00003E
:10280C000148FEF767B800BF240400200F4B1A687C
:10281C0042F001021A6059680D4A0A405A601A685F
:10282C0022F0847222F480321A601A6822F4802218
:10283C001A605A6822F4FE025A604FF41F029A6022
:10284C004FF00062034B9A60704700BF00100240CB
:10285C000000FFF800ED00E010B5094C0022204606
:10286C000849FFF7B2FB20460749FFF7C3FB204698
:10287C000649FFF7A5FB2046BDE81040FFF7C1BB9A
:10288C00000200207000002008000020A40000209E
:10289C0007B50E4B02689A4215D103F5DA33DA69A3
:1028AC00142042F40002DA610022DB69114603F4C1
:1028BC0000030193019BFDF7AFFC142003B05DF8FE
:1028CC0004EBFDF7D9BC03B05DF804FB005C0040E1
:1028DC0000F22C41D0F85C04FFF7B8BB00EB4113BD
:1028EC00D3F83C22D0F85C04FFF7DDBB00EB4113BE
:1028FC00DA6BD0F85C04FFF706BCD0F85C04FFF789
:10290C0082BC10B504460121D0F85C04FFF769FCC9
:10291C00D4F85C04BDE81040FFF744BC10B5044685
:10292C00D0F85C04FFF760FCA36923B1024A136979
:10293C0043F00603136110BD00ED00E0D0F85C0419
:10294C00FFF75BBC082310B5144A04461448022157
:10295C00C0E900230323C0E902130023C0F85C4440
:10296C00C4F82002C0E906330362FDF7BBFE20B1B8
:10297C004FF497710B48FFF7E1FE00221823114624
:10298C00D4F82002FEF76DFA582300228021D4F8E7
:10299C002002FEF766FA002010BD00BF005C00406C
:1029AC0024040020CD2C000808B5D0F82002FDF737
:1029BC0000FF032896BF024B0220185C08BD00BF25
:1029CC00E02C000808B5D0F82002FDF709FF032819
:1029DC0096BF024B0220185C08BD00BFE02C00081B
:1029EC0010B51446D0F820021A462346FDF724FFF2
:1029FC00032896BF014B0220185C10BDE02C000888
:102A0C0008B5D0F82002FEF7E1F9032896BF024B77
:102A1C000220185C08BD00BFE02C000808B5D0F8F7
:102A2C002002FEF7FBF9032896BF024B0220185C2C
:102A3C0008BD00BFE02C00080A06D0F8203245BFC4
:102A4C0001F07F0103EB411303EB411393F82A00D0
:102A5C0058BF93F82A02704708B5D0F82002FDF74A
:102A6C00D7FE032896BF024B0220185C08BD00BF9E
:102A7C00E02C000808B5D0F82002FDF715FF03285C
:102A8C0096BF024B0220185C08BD00BFE02C00086A
:102A9C0008B5D0F82002FDF7F2FE032896BF024BD2
:102AAC000220185C08BD00BFE02C000800487047ED
:102ABC008408002070477047122301480B80704730
:102ACC008C000020042301480B807047A0000020DC
:102ADC0010B5044C0A4604482146FFF745FD204634
:102AEC0010BD00BFA00C0020E42C000810B5044C55
:102AFC000A4604482146FFF737FD204610BD00BFAB
:102B0C00A00C0020F72C000810B5044C0A46044811
:102B1C002146FFF729FD204610BD00BFA00C002068
:102B2C00162D000810B5044C0A4604482146FFF740
:102B3C001BFD204610BD00BFA00C0020232D00085B
:102B4C0010B5044C0A4604482146FFF70DFD2046FB
:102B5C0010BD00BFA00C00202E2D0008034610B5A0
:102B6C0008461A440139934200D110BD13F8014BA9
:102B7C0001F8014FF7E700207047F8B517460D46EE
:102B8C00061FC0F10404A3199F4201D80020F8BD10
:102B9C000023294602207268FDF70CFC38B955F861
:102BAC00043B56F8042F9A42EDD00220EFE70120A7
:102BBC00EDE77FB500230293012301A9CDE90403BE
:102BCC0002A80393FDF75AFC003818BF01204000FF
:102BDC0007B05DF804FB08B5FDF7B8FB002008BD95
:102BEC0008B5FDF7A1FB3022014B0020DA6008BDCF
:102BFC0000200240002103E00B4B5B584350043192
:102C0C000A480B4B42189A42F6D30A4A02E00023B8
:102C1C0042F8043B084B9A42F9D3FFF7F7FD00F05A
:102C2C000FF8FFF73FFD7047802D000800000020D3
:102C3C00C0000020C0000020A00E0020FEE7000015
:102C4C0070B500260C4D0D4C641BA410A64209D186
:102C5C0000F01AF800260A4D0A4C641BA410A64278
:102C6C0005D170BD55F8043B98470136EEE755F891
:102C7C00043B98470136F2E7782D0008782D0008C0
:102C8C00782D00087C2D0008F8B500BFF8BC08BCF6
:102C9C009E467047F8B500BFF8BC08BC9E4670470E
:102CAC0002030405060708090A0B0C0D0E0F101081
:102CBC0000000000000000000001020304060708E9
:102CCC00092E2E2F5372632F757362645F636F6EC0
:102CDC00662E63000002010253544D6963726F65E6
:102CEC006C656374726F6E6963730053544D333249
:102CFC0020446F776E4C6F6164204669726D77610A
:102D0C00726520557064617465003030303030303D
:102D1C003030303031410044465520436F6E666987
:102D2C00670044465520496E7465726661636500A0
:102D3C0040496E7465726E616C20466C61736820DC
:102D4C0020202F307830383030303030302F313246
:102D5C002A3030314B612C35322A3030314B672CD4
:0C2D6C0036342A3030314B670000000084
:042D7800310100081D
:042D7C000D0100083D
:102D80000100000010000000491C0008151C00088C
:102D9000B91C0008CD1A0008BD1A0008B91A0008AD
:102DA000C11F0008C91F0008C51F0008951C0008A6
:102DB000AD1A0008AD1A0008AD1A0008C11A0008C3
:102DC000991C000809021B00010102C0320904001D
:102DD0000000FE01020609210BFF0000041A010099
:102DE0000A060002000000400100000000A24A04A0
:102DF000C52A0008D12A0008DD2A0008F92A00089F
:102E0000152B0008312B00084D2B00081201000281
:102E100000000040830411DF0002010203010000F2
:102E2000040309043C2D0008ED2B0008E32B0008E7
:102E3000BF2B0008872B0008692B0008832B000894
:0400000508002C01C2
:00000001FF
